{
  "contractName": "IPFS",
  "abi": [
    {
      "constant": true,
      "inputs": [
        {
          "name": "_data",
          "type": "string"
        }
      ],
      "name": "generateHash",
      "outputs": [
        {
          "name": "b58Hash",
          "type": "bytes"
        }
      ],
      "payable": false,
      "stateMutability": "view",
      "type": "function"
    },
    {
      "constant": true,
      "inputs": [
        {
          "name": "_length",
          "type": "uint256"
        }
      ],
      "name": "lengthEncode",
      "outputs": [
        {
          "name": "",
          "type": "bytes"
        }
      ],
      "payable": false,
      "stateMutability": "view",
      "type": "function"
    },
    {
      "constant": true,
      "inputs": [
        {
          "name": "_source",
          "type": "bytes"
        }
      ],
      "name": "base58",
      "outputs": [
        {
          "name": "",
          "type": "bytes"
        }
      ],
      "payable": false,
      "stateMutability": "pure",
      "type": "function"
    },
    {
      "constant": true,
      "inputs": [
        {
          "name": "_array",
          "type": "uint8[]"
        },
        {
          "name": "_length",
          "type": "uint8"
        }
      ],
      "name": "truncate",
      "outputs": [
        {
          "name": "",
          "type": "uint8[]"
        }
      ],
      "payable": false,
      "stateMutability": "pure",
      "type": "function"
    },
    {
      "constant": true,
      "inputs": [
        {
          "name": "_in",
          "type": "uint8[]"
        }
      ],
      "name": "reverse",
      "outputs": [
        {
          "name": "",
          "type": "uint8[]"
        }
      ],
      "payable": false,
      "stateMutability": "pure",
      "type": "function"
    },
    {
      "constant": true,
      "inputs": [
        {
          "name": "_indices",
          "type": "uint8[]"
        }
      ],
      "name": "toAlphabet",
      "outputs": [
        {
          "name": "",
          "type": "bytes"
        }
      ],
      "payable": false,
      "stateMutability": "pure",
      "type": "function"
    },
    {
      "constant": true,
      "inputs": [
        {
          "name": "_in",
          "type": "bytes32"
        }
      ],
      "name": "toBytes",
      "outputs": [
        {
          "name": "",
          "type": "bytes"
        }
      ],
      "payable": false,
      "stateMutability": "pure",
      "type": "function"
    },
    {
      "constant": false,
      "inputs": [
        {
          "name": "_x",
          "type": "uint256"
        }
      ],
      "name": "bin",
      "outputs": [
        {
          "name": "",
          "type": "bytes"
        }
      ],
      "payable": false,
      "stateMutability": "nonpayable",
      "type": "function"
    },
    {
      "constant": true,
      "inputs": [
        {
          "name": "_byteArray",
          "type": "bytes"
        },
        {
          "name": "_byteArray2",
          "type": "bytes"
        }
      ],
      "name": "concat",
      "outputs": [
        {
          "name": "",
          "type": "bytes"
        }
      ],
      "payable": false,
      "stateMutability": "pure",
      "type": "function"
    }
  ],
  "bytecode": "0x6060604052341561000f57600080fd5b61149f8061001e6000396000f300606060405260043610610098576000357c0100000000000000000000000000000000000000000000000000000000900463ffffffff168062cc15b01461009d578063326cf61c146101395780635f3376f3146101d957806361acdaaf146102f25780637e0cfc3d146103c8578063b063152a14610483578063c4802eb514610559578063d76f94aa146105f5578063f13d111f146106c8575b600080fd5b34156100a857600080fd5b6100be6004808035906020019091905050610777565b6040518080602001828103825283818151815260200191508051906020019080838360005b838110156100fe5780820151818401526020810190506100e3565b50505050905090810190601f16801561012b5780820380516001836020036101000a031916815260200191505b509250505060405180910390f35b341561014457600080fd5b61015e6004808035600019169060200190919050506107d4565b6040518080602001828103825283818151815260200191508051906020019080838360005b8381101561019e578082015181840152602081019050610183565b50505050905090810190601f1680156101cb5780820380516001836020036101000a031916815260200191505b509250505060405180910390f35b34156101e457600080fd5b610277600480803590602001908201803590602001908080601f0160208091040260200160405190810160405280939291908181526020018383808284378201915050505050509190803590602001908201803590602001908080601f016020809104026020016040519081016040528093929190818152602001838380828437820191505050505050919050506108a9565b6040518080602001828103825283818151815260200191508051906020019080838360005b838110156102b757808201518184015260208101905061029c565b50505050905090810190601f1680156102e45780820380516001836020036101000a031916815260200191505b509250505060405180910390f35b34156102fd57600080fd5b61034d600480803590602001908201803590602001908080601f01602080910402602001604051908101604052809392919081815260200183838082843782019150505050505091905050610a6d565b6040518080602001828103825283818151815260200191508051906020019080838360005b8381101561038d578082015181840152602081019050610372565b50505050905090810190601f1680156103ba5780820380516001836020036101000a031916815260200191505b509250505060405180910390f35b34156103d357600080fd5b61042c60048080359060200190820180359060200190808060200260200160405190810160405280939291908181526020018383602002808284378201915050505050509190803560ff16906020019091905050610ca2565b6040518080602001828103825283818151815260200191508051906020019060200280838360005b8381101561046f578082015181840152602081019050610454565b505050509050019250505060405180910390f35b341561048e57600080fd5b6104de600480803590602001908201803590602001908080601f01602080910402602001604051908101604052809392919081815260200183838082843782019150505050505091905050610d3c565b6040518080602001828103825283818151815260200191508051906020019080838360005b8381101561051e578082015181840152602081019050610503565b50505050905090810190601f16801561054b5780820380516001836020036101000a031916815260200191505b509250505060405180910390f35b341561056457600080fd5b61057a600480803590602001909190505061113f565b6040518080602001828103825283818151815260200191508051906020019080838360005b838110156105ba57808201518184015260208101905061059f565b50505050905090810190601f1680156105e75780820380516001836020036101000a031916815260200191505b509250505060405180910390f35b341561060057600080fd5b61064d600480803590602001908201803590602001908080602002602001604051908101604052809392919081815260200183836020028082843782019150505050505091905050611246565b6040518080602001828103825283818151815260200191508051906020019080838360005b8381101561068d578082015181840152602081019050610672565b50505050905090810190601f1680156106ba5780820380516001836020036101000a031916815260200191505b509250505060405180910390f35b34156106d357600080fd5b6107206004808035906020019082018035906020019080806020026020016040519081016040528093929190818152602001838360200280828437820191505050505050919050506113b0565b6040518080602001828103825283818151815260200191508051906020019060200280838360005b83811015610763578082015181840152602081019050610748565b505050509050019250505060405180910390f35b61077f61144b565b6080821015610798576107918261113f565b90506107cf565b6107cc6107b2608080858115156107ab57fe5b060161113f565b6107c76080858115156107c157fe5b0461113f565b6108a9565b90505b919050565b6107dc61144b565b6107e461144b565b600060206040518059106107f55750595b9080825280601f01601f19166020018201604052509150600090505b60208160ff16101561089f57838160ff1660208110151561082e57fe5b1a7f010000000000000000000000000000000000000000000000000000000000000002828260ff1681518110151561086257fe5b9060200101907effffffffffffffffffffffffffffffffffffffffffffffffffffffffffffff1916908160001a9053508080600101915050610811565b8192505050919050565b6108b161144b565b6108b961144b565b600083518551016040518059106108cd5750595b9080825280601f01601f19166020018201604052509150600090505b84518161ffff1610156109a257848161ffff1681518110151561090857fe5b9060200101517f010000000000000000000000000000000000000000000000000000000000000090047f010000000000000000000000000000000000000000000000000000000000000002828261ffff1681518110151561096557fe5b9060200101907effffffffffffffffffffffffffffffffffffffffffffffffffffffffffffff1916908160001a90535080806001019150506108e9565b5b83518551018161ffff161015610a62578385518261ffff16038151811015156109c857fe5b9060200101517f010000000000000000000000000000000000000000000000000000000000000090047f010000000000000000000000000000000000000000000000000000000000000002828261ffff16815181101515610a2557fe5b9060200101907effffffffffffffffffffffffffffffffffffffffffffffffffffffffffffff1916908160001a90535080806001019150506109a3565b819250505092915050565b610a7561144b565b610a7d61145f565b600080600080600087511415610ab8576000604051805910610a9c5750595b9080825280601f01601f19166020018201604052509550610c98565b6028604051805910610ac75750595b908082528060200260200182016040525094506000856000815181101515610aeb57fe5b9060200190602002019060ff16908160ff168152505060019350600092505b8651831015610c7b578683815181101515610b2157fe5b9060200101517f010000000000000000000000000000000000000000000000000000000000000090047f0100000000000000000000000000000000000000000000000000000000000000027f0100000000000000000000000000000000000000000000000000000000000000900460ff169150600090505b8360ff16811015610c14576101008582815181101515610bb557fe5b9060200190602002015160ff160282019150603a82811515610bd357fe5b068582815181101515610be257fe5b9060200190602002019060ff16908160ff1681525050603a82811515610c0457fe5b0491508080600101915050610b99565b5b6000821115610c6e57603a82811515610c2a57fe5b06858560ff16815181101515610c3c57fe5b9060200190602002019060ff16908160ff16815250508380600101945050603a82811515610c6657fe5b049150610c15565b8280600101935050610b0a565b610c95610c90610c8b8787610ca2565b6113b0565b611246565b95505b5050505050919050565b610caa61145f565b610cb261145f565b60008360ff16604051805910610cc55750595b90808252806020026020018201604052509150600090505b8360ff16811015610d31578481815181101515610cf657fe5b906020019060200201518282815181101515610d0e57fe5b9060200190602002019060ff16908160ff16815250508080600101915050610cdd565b819250505092915050565b610d4461144b565b610d4c61144b565b610d5461144b565b610d5c61144b565b849250610d698351610777565b9150610d7e8251600202600485510101610777565b9050611135611130610dfa6040805190810160405280600181526020017f12000000000000000000000000000000000000000000000000000000000000008152506040805190810160405280600181526020017f20000000000000000000000000000000000000000000000000000000000000008152506108a9565b61112b60026040805190810160405280600181526020017f0a00000000000000000000000000000000000000000000000000000000000000815250866040805190810160405280600381526020017f0802120000000000000000000000000000000000000000000000000000000000815250898b6040805190810160405280600181526020017f18000000000000000000000000000000000000000000000000000000000000008152508c6000604051602001526040518088805190602001908083835b602083101515610ee35780518252602082019150602081019050602083039250610ebe565b6001836020036101000a03801982511681845116808217855250505050505090500187805190602001908083835b602083101515610f365780518252602082019150602081019050602083039250610f11565b6001836020036101000a03801982511681845116808217855250505050505090500186805190602001908083835b602083101515610f895780518252602082019150602081019050602083039250610f64565b6001836020036101000a03801982511681845116808217855250505050505090500185805190602001908083835b602083101515610fdc5780518252602082019150602081019050602083039250610fb7565b6001836020036101000a03801982511681845116808217855250505050505090500184805190602001908083835b60208310151561102f578051825260208201915060208101905060208303925061100a565b6001836020036101000a03801982511681845116808217855250505050505090500183805190602001908083835b602083101515611082578051825260208201915060208101905060208303925061105d565b6001836020036101000a03801982511681845116808217855250505050505090500182805190602001908083835b6020831015156110d557805182526020820191506020810190506020830392506110b0565b6001836020036101000a03801982511681845116808217855250505050505090500197505050505050505060206040518083038160008661646e5a03f1151561111d57600080fd5b5050604051805190506107d4565b6108a9565b610a6d565b9350505050919050565b61114761144b565b600061115161144b565b60008414156111855760006040518059106111695750595b9080825280601f01601f1916602001820160405250925061123f565b6101008481151561119257fe5b067f010000000000000000000000000000000000000000000000000000000000000002915060016040518059106111c65750595b9080825280601f01601f19166020018201604052509050818160008151811015156111ed57fe5b9060200101907effffffffffffffffffffffffffffffffffffffffffffffffffffffffffffff1916908160001a90535061123c6112366101008681151561123057fe5b0461113f565b826108a9565b92505b5050919050565b61124e61144b565b61125661144b565b600083516040518059106112675750595b9080825280601f01601f19166020018201604052509150600090505b83518110156113a657606060405190810160405280603a81526020017f31323334353637383941424344454647484a4b4c4d4e5051525354555657585981526020017f5a6162636465666768696a6b6d6e6f707172737475767778797a00000000000081525084828151811015156112f757fe5b9060200190602002015160ff1681518110151561131057fe5b9060200101517f010000000000000000000000000000000000000000000000000000000000000090047f010000000000000000000000000000000000000000000000000000000000000002828281518110151561136957fe5b9060200101907effffffffffffffffffffffffffffffffffffffffffffffffffffffffffffff1916908160001a9053508080600101915050611283565b8192505050919050565b6113b861145f565b6113c061145f565b600083516040518059106113d15750595b90808252806020026020018201604052509150600090505b835181101561144157838160018651030381518110151561140657fe5b90602001906020020151828281518110151561141e57fe5b9060200190602002019060ff16908160ff168152505080806001019150506113e9565b8192505050919050565b602060405190810160405280600081525090565b6020604051908101604052806000815250905600a165627a7a72305820daa2b927f92840d3cbe1cf939ef8048d72e248fe6c5a7aee55881a2eed6276f40029",
  "source": "pragma solidity ^0.4.19;\n\n/**\n * @title IPFS\n * Contract to verify IPFS hashes on chain.\n * Cribbed from https://github.com/MrChico/verifyIPFS/blob/master/contracts/verifyIPFS.sol\n */\ncontract IPFS {\n    // struct MultiHash {\n    //     bytes32 digest;\n    //     uint8 hashFunction;\n    //     uint8 size;\n    // }\n\n    bytes constant Prefix1 = hex\"0a\";\n    bytes constant Prefix2 = hex\"080212\";\n    bytes constant Postfix = hex\"18\";\n    bytes constant Sha256MultiHashPrefix = hex\"12\";\n    bytes constant LengthPrefix = hex\"20\";\n    bytes constant ALPHABET = '123456789ABCDEFGHJKLMNPQRSTUVWXYZabcdefghijkmnopqrstuvwxyz';\n\n    function generateHash(string _data) \n        public constant returns (bytes b58Hash)\n    {\n        // Convert the string to bytes explicitly.\n        bytes memory data = bytes(_data);\n        //\n        bytes memory len1 = lengthEncode(data.length);\n        bytes memory len2 = lengthEncode(data.length + 4 + 2*len1.length);\n        return base58(concat(concat(Sha256MultiHashPrefix, LengthPrefix), toBytes(sha256(\n            Prefix1, len2, Prefix2, len1, data, Postfix, len1\n        ))));\n    }\n\n    function lengthEncode(uint256 _length)\n        public constant returns (bytes)\n    {\n        if (_length < 128) {\n            return bin(_length);\n        } else {\n            return concat(bin(_length % 128 + 128), bin(_length / 128));\n        }\n    }\n\n    function base58(bytes _source)\n        public pure returns (bytes)\n    {\n        if (_source.length == 0) {\n            return new bytes(0);\n        }\n        uint8[] memory digits = new uint8[](40);\n        digits[0] = 0;\n        uint8 digitLength = 1;\n        for (uint i = 0; i < _source.length; i++) {\n            uint carry = uint8(_source[i]);\n            for (uint j = 0; j < digitLength; j++) {\n                carry += uint(digits[j]) * 256;\n                digits[j] = uint8(carry % 58);\n                carry = carry / 58;\n            }\n\n            while (carry > 0) {\n                digits[digitLength] = uint8(carry % 58);\n                digitLength++;\n                carry = carry / 58;\n            }\n        }\n        return toAlphabet(reverse(truncate(digits, digitLength)));\n    }\n\n    function truncate(uint8[] _array, uint8 _length)\n        public pure returns (uint8[])\n    {\n        uint8[] memory out = new uint8[](_length);\n        for (uint i = 0; i < _length; i++) {\n            out[i] = _array[i];\n        }\n        return out;\n    }\n\n    function reverse(uint8[] _in)\n        public pure returns (uint8[])\n    {\n        uint8[] memory out = new uint8[](_in.length);\n        for (uint i = 0; i < _in.length; i++) {\n            out[i] = _in[_in.length-1-i];\n        }\n        return out;\n    }\n\n    function toAlphabet(uint8[] _indices)\n        public pure returns (bytes)\n    {\n        bytes memory out = new bytes(_indices.length);\n        for (uint i = 0; i < _indices.length; i++) {\n            out[i] = ALPHABET[_indices[i]];\n        }\n        return out;\n    }\n\n    function toBytes(bytes32 _in)\n        public pure returns (bytes)\n    {\n        bytes memory out = new bytes(32);\n        for (uint8 i = 0; i < 32; i++) {\n            out[i] = _in[i];\n        }\n        return out;\n    }\n\n    function bin(uint256 _x) \n        public returns (bytes)\n    {\n        if (_x == 0) {\n            return new bytes(0);\n        } else {\n            byte s = byte(_x % 256);\n            bytes memory res = new bytes(1);\n            res[0] = s;\n            return concat(bin(_x / 256), res);\n        }\n    }\n\n    function concat(bytes _byteArray, bytes _byteArray2)\n        public pure returns (bytes)\n    {\n        bytes memory resArray = new bytes(_byteArray.length + _byteArray2.length);\n        for (uint16 i = 0; i < _byteArray.length; i++) {\n            resArray[i] = _byteArray[i];\n        }\n        for (i; i < (_byteArray.length + _byteArray2.length); i++) {\n            resArray[i] = _byteArray2[i - _byteArray.length];\n        }\n        return resArray;\n    }\n}",
  "sourcePath": "/home/logan/Work/eac-v2/contracts/IPFS.sol",
  "compiler": {
    "name": "solc",
    "version": "0.4.19+commit.c4cbbb05.Emscripten.clang"
  },
  "schemaVersion": "2.0.0",
  "updatedAt": "2018-03-19T19:36:54.282Z"
}