{
  "contractName": "Scheduler",
  "abi": [
    {
      "payable": false,
      "stateMutability": "nonpayable",
      "type": "fallback"
    },
    {
      "anonymous": false,
      "inputs": [
        {
          "indexed": false,
          "name": "_tx",
          "type": "address"
        },
        {
          "indexed": true,
          "name": "_creator",
          "type": "address"
        }
      ],
      "name": "NewScheduledTransaction",
      "type": "event"
    },
    {
      "constant": false,
      "inputs": [
        {
          "name": "_serializedParams",
          "type": "string"
        }
      ],
      "name": "schedule",
      "outputs": [
        {
          "name": "scheduledTx",
          "type": "address"
        }
      ],
      "payable": true,
      "stateMutability": "payable",
      "type": "function"
    },
    {
      "constant": false,
      "inputs": [
        {
          "name": "_hash",
          "type": "bytes"
        }
      ],
      "name": "createTransaction",
      "outputs": [
        {
          "name": "",
          "type": "address"
        }
      ],
      "payable": false,
      "stateMutability": "nonpayable",
      "type": "function"
    }
  ],
  "bytecode": "0x6060604052341561000f57600080fd5b6102f28061001e6000396000f30060606040526004361061004c576000357c0100000000000000000000000000000000000000000000000000000000900463ffffffff168063b4f42f8b1461005c578063c2e1cd7f146100ee575b341561005757600080fd5b600080fd5b6100ac600480803590602001908201803590602001908080601f0160208091040260200160405190810160405280939291908181526020018383808284378201915050505050509190505061018b565b604051808273ffffffffffffffffffffffffffffffffffffffff1673ffffffffffffffffffffffffffffffffffffffff16815260200191505060405180910390f35b34156100f957600080fd5b610149600480803590602001908201803590602001908080601f016020809104026020016040519081016040528093929190818152602001838380828437820191505050505050919050506102ab565b604051808273ffffffffffffffffffffffffffffffffffffffff1673ffffffffffffffffffffffffffffffffffffffff16815260200191505060405180910390f35b6000806000806000806000806000806101a26102b2565b8b51995060208c0151985060408c0151975060608c0151965060808c0151955060a08c0151945060c08c0151935060e08c015192508284888a028b01010191508134101515156101f157600080fd5b6101fa816102ab565b9a5060008b73ffffffffffffffffffffffffffffffffffffffff161415151561022257600080fd5b3373ffffffffffffffffffffffffffffffffffffffff167f24e645623138cda7dde764ef20a743159ad1e3832d8db3b96581b6888572c7718c604051808273ffffffffffffffffffffffffffffffffffffffff1673ffffffffffffffffffffffffffffffffffffffff16815260200191505060405180910390a250505050505050505050919050565b6000919050565b6020604051908101604052806000815250905600a165627a7a7230582033c71dbe29dad8e35294e2aa2a59310acc8a1b5ad3e1b88273e5b36b622051350029",
  "source": "pragma solidity ^0.4.19;\n\n// import IPFS.sol\nimport \"./ScheduledTransaction.sol\";\n\ncontract Scheduler {\n    function () public { revert(); }\n\n    function schedule(string _serializedParams) \n        public payable returns (address scheduledTx)\n    {\n        // Deploy the ScheduledTransaction contract\n        address recipient;\n        uint256 value;\n        uint256 callGas;\n        uint256 gasPrice;\n        uint256 executionWindowStart;\n        uint256 executionWindowLength;\n        uint256 bounty;\n        uint256 fee;\n        // No requiredDeposit - Use Day Token now\n\n        assembly {\n            recipient := mload(_serializedParams)\n            value := mload(add(_serializedParams, 32))\n            callGas := mload(add(_serializedParams, 64))\n            gasPrice := mload(add(_serializedParams, 96))\n            executionWindowStart := mload(add(_serializedParams, 128))\n            executionWindowLength := mload(add(_serializedParams, 160))\n            bounty := mload(add(_serializedParams, 192))\n            fee := mload(add(_serializedParams, 224))\n            // CallData = everything after this\n        }\n\n        uint endowment = value + callGas * gasPrice + bounty + fee;\n        require(msg.value >= endowment);\n\n        // bytes ipfsHash = IPFS.generateHash(_serializedParams);\n        bytes memory ipfsHash;\n        scheduledTx = createTransaction(ipfsHash);\n        require(scheduledTx != 0x0);\n\n        ScheduledTransaction(scheduledTx).init.value(msg.value);\n        // Store in the request tracker\n        NewScheduledTransaction(scheduledTx, msg.sender);\n    }\n\n    function createTransaction(bytes _hash) public returns (address) {}\n\n    event NewScheduledTransaction(address _tx, address indexed _creator);\n}\n",
  "sourcePath": "/home/logan/Work/eac-v2/contracts/Scheduler.sol",
  "compiler": {
    "name": "solc",
    "version": "0.4.19+commit.c4cbbb05.Emscripten.clang"
  },
  "schemaVersion": "2.0.0",
  "updatedAt": "2018-03-19T19:36:54.288Z"
}